{
  "_format": "hh-sol-artifact-1",
  "contractName": "NFTMarketplace",
  "sourceName": "contracts/CeloNFTMarketplace.sol",
  "abi": [
    {
      "inputs": [],
      "name": "MRKT__FailedToSendEth",
      "type": "error"
    },
    {
      "inputs": [],
      "name": "MRKT__IncorrectEthSupplied",
      "type": "error"
    },
    {
      "inputs": [],
      "name": "MRKT__NftAlreadyListed",
      "type": "error"
    },
    {
      "inputs": [],
      "name": "MRKT__NftNotListed",
      "type": "error"
    },
    {
      "inputs": [],
      "name": "MRKT__NftPriceCantBeZero",
      "type": "error"
    },
    {
      "inputs": [],
      "name": "MRKT__NoApprovalForNFT",
      "type": "error"
    },
    {
      "inputs": [],
      "name": "MRKT__NotTheOwner",
      "type": "error"
    },
    {
      "anonymous": false,
      "inputs": [
        {
          "indexed": false,
          "internalType": "address",
          "name": "nftAddress",
          "type": "address"
        },
        {
          "indexed": false,
          "internalType": "uint256",
          "name": "tokenId",
          "type": "uint256"
        },
        {
          "indexed": false,
          "internalType": "address",
          "name": "seller",
          "type": "address"
        }
      ],
      "name": "ListingCanceled",
      "type": "event"
    },
    {
      "anonymous": false,
      "inputs": [
        {
          "indexed": false,
          "internalType": "address",
          "name": "nftAddress",
          "type": "address"
        },
        {
          "indexed": false,
          "internalType": "uint256",
          "name": "tokenId",
          "type": "uint256"
        },
        {
          "indexed": false,
          "internalType": "uint256",
          "name": "price",
          "type": "uint256"
        },
        {
          "indexed": false,
          "internalType": "address",
          "name": "seller",
          "type": "address"
        }
      ],
      "name": "ListingCreated",
      "type": "event"
    },
    {
      "anonymous": false,
      "inputs": [
        {
          "indexed": false,
          "internalType": "address",
          "name": "nftAddress",
          "type": "address"
        },
        {
          "indexed": false,
          "internalType": "uint256",
          "name": "tokenId",
          "type": "uint256"
        },
        {
          "indexed": false,
          "internalType": "address",
          "name": "seller",
          "type": "address"
        },
        {
          "indexed": false,
          "internalType": "address",
          "name": "buyer",
          "type": "address"
        }
      ],
      "name": "ListingPurchased",
      "type": "event"
    },
    {
      "anonymous": false,
      "inputs": [
        {
          "indexed": false,
          "internalType": "address",
          "name": "nftAddress",
          "type": "address"
        },
        {
          "indexed": false,
          "internalType": "uint256",
          "name": "tokenId",
          "type": "uint256"
        },
        {
          "indexed": false,
          "internalType": "uint256",
          "name": "newPrice",
          "type": "uint256"
        },
        {
          "indexed": false,
          "internalType": "address",
          "name": "seller",
          "type": "address"
        }
      ],
      "name": "ListingUpdated",
      "type": "event"
    },
    {
      "inputs": [
        {
          "internalType": "address",
          "name": "nftAddress",
          "type": "address"
        },
        {
          "internalType": "uint256",
          "name": "tokenId",
          "type": "uint256"
        }
      ],
      "name": "cancelListing",
      "outputs": [],
      "stateMutability": "nonpayable",
      "type": "function"
    },
    {
      "inputs": [
        {
          "internalType": "address",
          "name": "nftAddress",
          "type": "address"
        },
        {
          "internalType": "uint256",
          "name": "tokenId",
          "type": "uint256"
        },
        {
          "internalType": "uint256",
          "name": "price",
          "type": "uint256"
        }
      ],
      "name": "createListing",
      "outputs": [],
      "stateMutability": "nonpayable",
      "type": "function"
    },
    {
      "inputs": [
        {
          "internalType": "address",
          "name": "",
          "type": "address"
        },
        {
          "internalType": "uint256",
          "name": "",
          "type": "uint256"
        }
      ],
      "name": "listings",
      "outputs": [
        {
          "internalType": "uint256",
          "name": "price",
          "type": "uint256"
        },
        {
          "internalType": "address",
          "name": "seller",
          "type": "address"
        }
      ],
      "stateMutability": "view",
      "type": "function"
    },
    {
      "inputs": [
        {
          "internalType": "address",
          "name": "nftAddress",
          "type": "address"
        },
        {
          "internalType": "uint256",
          "name": "tokenId",
          "type": "uint256"
        }
      ],
      "name": "purchaseListing",
      "outputs": [],
      "stateMutability": "payable",
      "type": "function"
    },
    {
      "inputs": [
        {
          "internalType": "address",
          "name": "nftAddress",
          "type": "address"
        },
        {
          "internalType": "uint256",
          "name": "tokenId",
          "type": "uint256"
        },
        {
          "internalType": "uint256",
          "name": "newPrice",
          "type": "uint256"
        }
      ],
      "name": "updateListing",
      "outputs": [],
      "stateMutability": "nonpayable",
      "type": "function"
    }
  ],
  "bytecode": "0x608060405234801561001057600080fd5b5061118f806100206000396000f3fe6080604052600436106100495760003560e01c806207df301461004e57806324780c561461008c578063a7fc91b9146100b5578063b2ddee06146100d1578063f772adf1146100fa575b600080fd5b34801561005a57600080fd5b5061007560048036038101906100709190610e4f565b610123565b604051610083929190611095565b60405180910390f35b34801561009857600080fd5b506100b360048036038101906100ae9190610e8b565b610174565b005b6100cf60048036038101906100ca9190610e4f565b6105ca565b005b3480156100dd57600080fd5b506100f860048036038101906100f39190610e4f565b610938565b005b34801561010657600080fd5b50610121600480360381019061011c9190610e8b565b610b7a565b005b6000602052816000526040600020602052806000526040600020600091509150508060000154908060010160009054906101000a900473ffffffffffffffffffffffffffffffffffffffff16905082565b828260008060008473ffffffffffffffffffffffffffffffffffffffff1673ffffffffffffffffffffffffffffffffffffffff16815260200190815260200160002060008381526020019081526020016000206000015414610202576040517fa5cadbd200000000000000000000000000000000000000000000000000000000815260040160405180910390fd5b84843373ffffffffffffffffffffffffffffffffffffffff168273ffffffffffffffffffffffffffffffffffffffff16636352211e836040518263ffffffff1660e01b8152600401610254919061107a565b60206040518083038186803b15801561026c57600080fd5b505afa158015610280573d6000803e3d6000fd5b505050506040513d601f19601f820116820180604052508101906102a49190610e26565b73ffffffffffffffffffffffffffffffffffffffff16146102f1576040517fddf4a3de00000000000000000000000000000000000000000000000000000000815260040160405180910390fd5b84600081141561032d576040517f3af0169700000000000000000000000000000000000000000000000000000000815260040160405180910390fd5b60008890508073ffffffffffffffffffffffffffffffffffffffff1663e985e9c533306040518363ffffffff1660e01b815260040161036d929190610f59565b60206040518083038186803b15801561038557600080fd5b505afa158015610399573d6000803e3d6000fd5b505050506040513d601f19601f820116820180604052508101906103bd9190610eda565b158061047d57503073ffffffffffffffffffffffffffffffffffffffff168173ffffffffffffffffffffffffffffffffffffffff1663081812fc8a6040518263ffffffff1660e01b8152600401610414919061107a565b60206040518083038186803b15801561042c57600080fd5b505afa158015610440573d6000803e3d6000fd5b505050506040513d601f19601f820116820180604052508101906104649190610e26565b73ffffffffffffffffffffffffffffffffffffffff1614155b156104b4576040517f742e421000000000000000000000000000000000000000000000000000000000815260040160405180910390fd5b60405180604001604052808881526020013373ffffffffffffffffffffffffffffffffffffffff168152506000808b73ffffffffffffffffffffffffffffffffffffffff1673ffffffffffffffffffffffffffffffffffffffff16815260200190815260200160002060008a81526020019081526020016000206000820151816000015560208201518160010160006101000a81548173ffffffffffffffffffffffffffffffffffffffff021916908373ffffffffffffffffffffffffffffffffffffffff1602179055509050507fdc801191e0c92935648f61c8e3d0cd8eac1d060269ddb920487d02ab0be69e7d898989336040516105b79493929190611035565b60405180910390a1505050505050505050565b818160008060008473ffffffffffffffffffffffffffffffffffffffff1673ffffffffffffffffffffffffffffffffffffffff1681526020019081526020016000206000838152602001908152602001600020600001541415610659576040517f2a83357c00000000000000000000000000000000000000000000000000000000815260040160405180910390fd5b60008060008673ffffffffffffffffffffffffffffffffffffffff1673ffffffffffffffffffffffffffffffffffffffff1681526020019081526020016000206000858152602001908152602001600020604051806040016040529081600082015481526020016001820160009054906101000a900473ffffffffffffffffffffffffffffffffffffffff1673ffffffffffffffffffffffffffffffffffffffff1673ffffffffffffffffffffffffffffffffffffffff1681525050905080600001513414610754576040517f89cdd88b00000000000000000000000000000000000000000000000000000000815260040160405180910390fd5b6000808673ffffffffffffffffffffffffffffffffffffffff1673ffffffffffffffffffffffffffffffffffffffff16815260200190815260200160002060008581526020019081526020016000206000808201600090556001820160006101000a81549073ffffffffffffffffffffffffffffffffffffffff021916905550508473ffffffffffffffffffffffffffffffffffffffff166342842e0e826020015133876040518463ffffffff1660e01b815260040161081693929190610f82565b600060405180830381600087803b15801561083057600080fd5b505af1158015610844573d6000803e3d6000fd5b505050506000816020015173ffffffffffffffffffffffffffffffffffffffff163460405161087290610f44565b60006040518083038185875af1925050503d80600081146108af576040519150601f19603f3d011682016040523d82523d6000602084013e6108b4565b606091505b50509050806108ef576040517f7804114300000000000000000000000000000000000000000000000000000000815260040160405180910390fd5b7fab7369fca6913c40e2bf7144b586a1a0e894bd32f5f9e74128cd89fb54f7bf9486868460200151336040516109289493929190610ff0565b60405180910390a1505050505050565b818160008060008473ffffffffffffffffffffffffffffffffffffffff1673ffffffffffffffffffffffffffffffffffffffff16815260200190815260200160002060008381526020019081526020016000206000015414156109c7576040517f2a83357c00000000000000000000000000000000000000000000000000000000815260040160405180910390fd5b83833373ffffffffffffffffffffffffffffffffffffffff168273ffffffffffffffffffffffffffffffffffffffff16636352211e836040518263ffffffff1660e01b8152600401610a19919061107a565b60206040518083038186803b158015610a3157600080fd5b505afa158015610a45573d6000803e3d6000fd5b505050506040513d601f19601f82011682018060405250810190610a699190610e26565b73ffffffffffffffffffffffffffffffffffffffff1614610ab6576040517fddf4a3de00000000000000000000000000000000000000000000000000000000815260040160405180910390fd5b6000808773ffffffffffffffffffffffffffffffffffffffff1673ffffffffffffffffffffffffffffffffffffffff16815260200190815260200160002060008681526020019081526020016000206000808201600090556001820160006101000a81549073ffffffffffffffffffffffffffffffffffffffff021916905550507fcf45896873f759e6a8c2348e49ff9892b89458850ab6c70339e1c430227ce91d868633604051610b6a93929190610fb9565b60405180910390a1505050505050565b828260008060008473ffffffffffffffffffffffffffffffffffffffff1673ffffffffffffffffffffffffffffffffffffffff1681526020019081526020016000206000838152602001908152602001600020600001541415610c09576040517f2a83357c00000000000000000000000000000000000000000000000000000000815260040160405180910390fd5b84843373ffffffffffffffffffffffffffffffffffffffff168273ffffffffffffffffffffffffffffffffffffffff16636352211e836040518263ffffffff1660e01b8152600401610c5b919061107a565b60206040518083038186803b158015610c7357600080fd5b505afa158015610c87573d6000803e3d6000fd5b505050506040513d601f19601f82011682018060405250810190610cab9190610e26565b73ffffffffffffffffffffffffffffffffffffffff1614610cf8576040517fddf4a3de00000000000000000000000000000000000000000000000000000000815260040160405180910390fd5b846000811415610d34576040517f3af0169700000000000000000000000000000000000000000000000000000000815260040160405180910390fd5b856000808a73ffffffffffffffffffffffffffffffffffffffff1673ffffffffffffffffffffffffffffffffffffffff1681526020019081526020016000206000898152602001908152602001600020600001819055507f3199bfdff711ec1ab8ab8449dc3b8d3fa30a59861a734a9d26f7b1a38162df7588888833604051610dc09493929190611035565b60405180910390a15050505050505050565b600081359050610de181611114565b92915050565b600081519050610df681611114565b92915050565b600081519050610e0b8161112b565b92915050565b600081359050610e2081611142565b92915050565b600060208284031215610e3857600080fd5b6000610e4684828501610de7565b91505092915050565b60008060408385031215610e6257600080fd5b6000610e7085828601610dd2565b9250506020610e8185828601610e11565b9150509250929050565b600080600060608486031215610ea057600080fd5b6000610eae86828701610dd2565b9350506020610ebf86828701610e11565b9250506040610ed086828701610e11565b9150509250925092565b600060208284031215610eec57600080fd5b6000610efa84828501610dfc565b91505092915050565b610f0c816110c9565b82525050565b6000610f1f6000836110be565b9150610f2a82611111565b600082019050919050565b610f3e81611107565b82525050565b6000610f4f82610f12565b9150819050919050565b6000604082019050610f6e6000830185610f03565b610f7b6020830184610f03565b9392505050565b6000606082019050610f976000830186610f03565b610fa46020830185610f03565b610fb16040830184610f35565b949350505050565b6000606082019050610fce6000830186610f03565b610fdb6020830185610f35565b610fe86040830184610f03565b949350505050565b60006080820190506110056000830187610f03565b6110126020830186610f35565b61101f6040830185610f03565b61102c6060830184610f03565b95945050505050565b600060808201905061104a6000830187610f03565b6110576020830186610f35565b6110646040830185610f35565b6110716060830184610f03565b95945050505050565b600060208201905061108f6000830184610f35565b92915050565b60006040820190506110aa6000830185610f35565b6110b76020830184610f03565b9392505050565b600081905092915050565b60006110d4826110e7565b9050919050565b60008115159050919050565b600073ffffffffffffffffffffffffffffffffffffffff82169050919050565b6000819050919050565b50565b61111d816110c9565b811461112857600080fd5b50565b611134816110db565b811461113f57600080fd5b50565b61114b81611107565b811461115657600080fd5b5056fea2646970667358221220594d11d83e12d93b4fd9c5e069ebdefa082ff6eec8a7fb4ef0e68d954d57991564736f6c63430008040033",
  "linkReferences": {},
  "deployedLinkReferences": {}
}